:1000000012C021C020C01FC01EC01DC01CC01BC00C
:100010001AC02AC018C017C016C015C014C013C01B
:1000200012C011C010C011241FBECFE5D4E0DEBF46
:10003000CDBF20E0A0E6B0E001C01D92A436B2071B
:10004000E1F702D043C0DCCF8FEF87BB83B7856079
:1000500083BF83E882BF81E089BF7894A09A8E9A9B
:100060008A988B98C098FFCF1F920F920FB60F926D
:1000700011248F939F93AF93BF9383E882BF8091A6
:10008000600090916100A0916200B09163000196C0
:10009000A11DB11D8093600090936100A093620048
:1000A000B093630085369105A105B10510F0C098A5
:1000B00004C098B381E0892788BBBF91AF919F911D
:1000C0008F910F900FBE0F901F901895F894FFCF4F
:00000001FF
